{
    "_format": "hh-sol-artifact-1",
    "contractName": "DCRRaceFaucet",
    "sourceName": "contracts/DCR/DCRRaceFaucet.sol",
    "abi": [
        {
            "anonymous": false,
            "inputs": [
                {
                    "indexed": true,
                    "internalType": "uint256",
                    "name": "id",
                    "type": "uint256"
                },
                {
                    "components": [
                        {
                            "internalType": "uint256",
                            "name": "id",
                            "type": "uint256"
                        },
                        {
                            "internalType": "address",
                            "name": "bettor",
                            "type": "address"
                        },
                        {
                            "internalType": "uint256",
                            "name": "raceId",
                            "type": "uint256"
                        },
                        {
                            "internalType": "uint256",
                            "name": "lap",
                            "type": "uint256"
                        },
                        {
                            "internalType": "uint256",
                            "name": "amount",
                            "type": "uint256"
                        },
                        {
                            "internalType": "uint256",
                            "name": "contestantId",
                            "type": "uint256"
                        },
                        {
                            "internalType": "enum DCRRaceFaucet.BetResult",
                            "name": "result",
                            "type": "uint8"
                        },
                        {
                            "internalType": "enum DCRRaceFaucet.BetType",
                            "name": "betType",
                            "type": "uint8"
                        },
                        {
                            "internalType": "bool",
                            "name": "claimed",
                            "type": "bool"
                        }
                    ],
                    "indexed": false,
                    "internalType": "struct DCRRaceFaucet.Bet",
                    "name": "bet",
                    "type": "tuple"
                }
            ],
            "name": "BetCreated",
            "type": "event"
        },
        {
            "anonymous": false,
            "inputs": [
                {
                    "indexed": true,
                    "internalType": "uint256",
                    "name": "id",
                    "type": "uint256"
                },
                {
                    "components": [
                        {
                            "internalType": "uint256",
                            "name": "id",
                            "type": "uint256"
                        },
                        {
                            "internalType": "address",
                            "name": "bettor",
                            "type": "address"
                        },
                        {
                            "internalType": "uint256",
                            "name": "raceId",
                            "type": "uint256"
                        },
                        {
                            "internalType": "uint256",
                            "name": "lap",
                            "type": "uint256"
                        },
                        {
                            "internalType": "uint256",
                            "name": "amount",
                            "type": "uint256"
                        },
                        {
                            "internalType": "uint256",
                            "name": "contestantId",
                            "type": "uint256"
                        },
                        {
                            "internalType": "enum DCRRaceFaucet.BetResult",
                            "name": "result",
                            "type": "uint8"
                        },
                        {
                            "internalType": "enum DCRRaceFaucet.BetType",
                            "name": "betType",
                            "type": "uint8"
                        },
                        {
                            "internalType": "bool",
                            "name": "claimed",
                            "type": "bool"
                        }
                    ],
                    "indexed": false,
                    "internalType": "struct DCRRaceFaucet.Bet",
                    "name": "bet",
                    "type": "tuple"
                }
            ],
            "name": "BetDeleted",
            "type": "event"
        },
        {
            "anonymous": false,
            "inputs": [
                {
                    "indexed": true,
                    "internalType": "uint256",
                    "name": "id",
                    "type": "uint256"
                },
                {
                    "components": [
                        {
                            "internalType": "uint256",
                            "name": "id",
                            "type": "uint256"
                        },
                        {
                            "internalType": "address",
                            "name": "bettor",
                            "type": "address"
                        },
                        {
                            "internalType": "uint256",
                            "name": "raceId",
                            "type": "uint256"
                        },
                        {
                            "internalType": "uint256",
                            "name": "lap",
                            "type": "uint256"
                        },
                        {
                            "internalType": "uint256",
                            "name": "amount",
                            "type": "uint256"
                        },
                        {
                            "internalType": "uint256",
                            "name": "contestantId",
                            "type": "uint256"
                        },
                        {
                            "internalType": "enum DCRRaceFaucet.BetResult",
                            "name": "result",
                            "type": "uint8"
                        },
                        {
                            "internalType": "enum DCRRaceFaucet.BetType",
                            "name": "betType",
                            "type": "uint8"
                        },
                        {
                            "internalType": "bool",
                            "name": "claimed",
                            "type": "bool"
                        }
                    ],
                    "indexed": false,
                    "internalType": "struct DCRRaceFaucet.Bet",
                    "name": "bet",
                    "type": "tuple"
                }
            ],
            "name": "BetUpdated",
            "type": "event"
        },
        {
            "anonymous": false,
            "inputs": [
                {
                    "indexed": true,
                    "internalType": "uint256",
                    "name": "id",
                    "type": "uint256"
                },
                {
                    "components": [
                        {
                            "internalType": "string",
                            "name": "name",
                            "type": "string"
                        },
                        {
                            "internalType": "string",
                            "name": "description",
                            "type": "string"
                        },
                        {
                            "internalType": "uint256",
                            "name": "id",
                            "type": "uint256"
                        },
                        {
                            "internalType": "string",
                            "name": "pic",
                            "type": "string"
                        }
                    ],
                    "indexed": false,
                    "internalType": "struct DCRRaceFaucet.Contestant",
                    "name": "contestant",
                    "type": "tuple"
                }
            ],
            "name": "ContestantCreated",
            "type": "event"
        },
        {
            "anonymous": false,
            "inputs": [
                {
                    "indexed": true,
                    "internalType": "uint256",
                    "name": "id",
                    "type": "uint256"
                }
            ],
            "name": "ContestantDeleted",
            "type": "event"
        },
        {
            "anonymous": false,
            "inputs": [
                {
                    "indexed": true,
                    "internalType": "uint256",
                    "name": "raceId",
                    "type": "uint256"
                },
                {
                    "indexed": true,
                    "internalType": "uint256",
                    "name": "contestantId",
                    "type": "uint256"
                },
                {
                    "indexed": false,
                    "internalType": "bool",
                    "name": "status",
                    "type": "bool"
                }
            ],
            "name": "ContestantRaceStatusChanged",
            "type": "event"
        },
        {
            "anonymous": false,
            "inputs": [
                {
                    "indexed": true,
                    "internalType": "uint256",
                    "name": "raceId",
                    "type": "uint256"
                },
                {
                    "indexed": false,
                    "internalType": "uint256[]",
                    "name": "contestantIds",
                    "type": "uint256[]"
                },
                {
                    "indexed": false,
                    "internalType": "bool",
                    "name": "status",
                    "type": "bool"
                }
            ],
            "name": "ContestantRaceStatusChangedBatch",
            "type": "event"
        },
        {
            "anonymous": false,
            "inputs": [
                {
                    "indexed": true,
                    "internalType": "uint256",
                    "name": "id",
                    "type": "uint256"
                },
                {
                    "components": [
                        {
                            "internalType": "string",
                            "name": "name",
                            "type": "string"
                        },
                        {
                            "internalType": "string",
                            "name": "description",
                            "type": "string"
                        },
                        {
                            "internalType": "uint256",
                            "name": "id",
                            "type": "uint256"
                        },
                        {
                            "internalType": "string",
                            "name": "pic",
                            "type": "string"
                        }
                    ],
                    "indexed": false,
                    "internalType": "struct DCRRaceFaucet.Contestant",
                    "name": "contestant",
                    "type": "tuple"
                }
            ],
            "name": "ContestantUpdated",
            "type": "event"
        },
        {
            "anonymous": false,
            "inputs": [
                {
                    "indexed": false,
                    "internalType": "uint8",
                    "name": "version",
                    "type": "uint8"
                }
            ],
            "name": "Initialized",
            "type": "event"
        },
        {
            "anonymous": false,
            "inputs": [
                {
                    "indexed": true,
                    "internalType": "uint256",
                    "name": "raceId",
                    "type": "uint256"
                },
                {
                    "indexed": true,
                    "internalType": "uint256",
                    "name": "lap",
                    "type": "uint256"
                },
                {
                    "indexed": false,
                    "internalType": "enum DCRRaceFaucet.BetStatus",
                    "name": "status",
                    "type": "uint8"
                }
            ],
            "name": "LapBetStatusChange",
            "type": "event"
        },
        {
            "anonymous": false,
            "inputs": [
                {
                    "indexed": true,
                    "internalType": "uint256",
                    "name": "raceId",
                    "type": "uint256"
                },
                {
                    "indexed": false,
                    "internalType": "uint256",
                    "name": "lap",
                    "type": "uint256"
                },
                {
                    "indexed": false,
                    "internalType": "uint256",
                    "name": "first",
                    "type": "uint256"
                },
                {
                    "indexed": false,
                    "internalType": "uint256",
                    "name": "second",
                    "type": "uint256"
                },
                {
                    "indexed": false,
                    "internalType": "uint256",
                    "name": "third",
                    "type": "uint256"
                }
            ],
            "name": "LapFinished",
            "type": "event"
        },
        {
            "anonymous": false,
            "inputs": [
                {
                    "indexed": true,
                    "internalType": "uint256",
                    "name": "raceId",
                    "type": "uint256"
                },
                {
                    "indexed": false,
                    "internalType": "uint256",
                    "name": "lap",
                    "type": "uint256"
                },
                {
                    "indexed": false,
                    "internalType": "address",
                    "name": "participant",
                    "type": "address"
                },
                {
                    "indexed": false,
                    "internalType": "uint256",
                    "name": "amount",
                    "type": "uint256"
                }
            ],
            "name": "LapRewardClaimed",
            "type": "event"
        },
        {
            "anonymous": false,
            "inputs": [
                {
                    "indexed": true,
                    "internalType": "address",
                    "name": "previousOwner",
                    "type": "address"
                },
                {
                    "indexed": true,
                    "internalType": "address",
                    "name": "newOwner",
                    "type": "address"
                }
            ],
            "name": "OwnershipTransferred",
            "type": "event"
        },
        {
            "anonymous": false,
            "inputs": [
                {
                    "indexed": true,
                    "internalType": "uint256",
                    "name": "raceId",
                    "type": "uint256"
                },
                {
                    "indexed": false,
                    "internalType": "enum DCRRaceFaucet.BetStatus",
                    "name": "status",
                    "type": "uint8"
                }
            ],
            "name": "RaceBetStatusChange",
            "type": "event"
        },
        {
            "anonymous": false,
            "inputs": [
                {
                    "indexed": true,
                    "internalType": "uint256",
                    "name": "id",
                    "type": "uint256"
                },
                {
                    "components": [
                        {
                            "internalType": "string",
                            "name": "name",
                            "type": "string"
                        },
                        {
                            "internalType": "uint256",
                            "name": "laps",
                            "type": "uint256"
                        },
                        {
                            "internalType": "uint256",
                            "name": "id",
                            "type": "uint256"
                        },
                        {
                            "internalType": "uint256",
                            "name": "startTime",
                            "type": "uint256"
                        },
                        {
                            "internalType": "uint256",
                            "name": "finishTime",
                            "type": "uint256"
                        },
                        {
                            "internalType": "uint256",
                            "name": "currentLap",
                            "type": "uint256"
                        },
                        {
                            "internalType": "enum DCRRaceFaucet.RaceStatus",
                            "name": "status",
                            "type": "uint8"
                        },
                        {
                            "internalType": "enum DCRRaceFaucet.BetStatus",
                            "name": "betStatus",
                            "type": "uint8"
                        },
                        {
                            "internalType": "uint256",
                            "name": "startingTimestamp",
                            "type": "uint256"
                        },
                        {
                            "internalType": "uint256",
                            "name": "minBet",
                            "type": "uint256"
                        },
                        {
                            "internalType": "uint256",
                            "name": "maxBet",
                            "type": "uint256"
                        }
                    ],
                    "indexed": false,
                    "internalType": "struct DCRRaceFaucet.Race",
                    "name": "race",
                    "type": "tuple"
                }
            ],
            "name": "RaceCreated",
            "type": "event"
        },
        {
            "anonymous": false,
            "inputs": [
                {
                    "indexed": true,
                    "internalType": "uint256",
                    "name": "raceId",
                    "type": "uint256"
                },
                {
                    "components": [
                        {
                            "internalType": "string",
                            "name": "name",
                            "type": "string"
                        },
                        {
                            "internalType": "uint256",
                            "name": "laps",
                            "type": "uint256"
                        },
                        {
                            "internalType": "uint256",
                            "name": "id",
                            "type": "uint256"
                        },
                        {
                            "internalType": "uint256",
                            "name": "startTime",
                            "type": "uint256"
                        },
                        {
                            "internalType": "uint256",
                            "name": "finishTime",
                            "type": "uint256"
                        },
                        {
                            "internalType": "uint256",
                            "name": "currentLap",
                            "type": "uint256"
                        },
                        {
                            "internalType": "enum DCRRaceFaucet.RaceStatus",
                            "name": "status",
                            "type": "uint8"
                        },
                        {
                            "internalType": "enum DCRRaceFaucet.BetStatus",
                            "name": "betStatus",
                            "type": "uint8"
                        },
                        {
                            "internalType": "uint256",
                            "name": "startingTimestamp",
                            "type": "uint256"
                        },
                        {
                            "internalType": "uint256",
                            "name": "minBet",
                            "type": "uint256"
                        },
                        {
                            "internalType": "uint256",
                            "name": "maxBet",
                            "type": "uint256"
                        }
                    ],
                    "indexed": false,
                    "internalType": "struct DCRRaceFaucet.Race",
                    "name": "race",
                    "type": "tuple"
                },
                {
                    "indexed": false,
                    "internalType": "uint256[]",
                    "name": "contestantIds",
                    "type": "uint256[]"
                }
            ],
            "name": "RaceCreatedWithContestants",
            "type": "event"
        },
        {
            "anonymous": false,
            "inputs": [
                {
                    "indexed": true,
                    "internalType": "uint256",
                    "name": "id",
                    "type": "uint256"
                }
            ],
            "name": "RaceDeleted",
            "type": "event"
        },
        {
            "anonymous": false,
            "inputs": [
                {
                    "indexed": true,
                    "internalType": "uint256",
                    "name": "raceId",
                    "type": "uint256"
                },
                {
                    "indexed": false,
                    "internalType": "uint256",
                    "name": "winnerId",
                    "type": "uint256"
                }
            ],
            "name": "RaceFinished",
            "type": "event"
        },
        {
            "anonymous": false,
            "inputs": [
                {
                    "indexed": true,
                    "internalType": "uint256",
                    "name": "raceId",
                    "type": "uint256"
                },
                {
                    "indexed": true,
                    "internalType": "uint256",
                    "name": "lap",
                    "type": "uint256"
                }
            ],
            "name": "RaceLapStarted",
            "type": "event"
        },
        {
            "anonymous": false,
            "inputs": [
                {
                    "indexed": true,
                    "internalType": "uint256",
                    "name": "raceId",
                    "type": "uint256"
                },
                {
                    "indexed": false,
                    "internalType": "address",
                    "name": "participant",
                    "type": "address"
                },
                {
                    "indexed": false,
                    "internalType": "uint256",
                    "name": "amount",
                    "type": "uint256"
                }
            ],
            "name": "RaceRewardClaimed",
            "type": "event"
        },
        {
            "anonymous": false,
            "inputs": [
                {
                    "indexed": true,
                    "internalType": "uint256",
                    "name": "raceId",
                    "type": "uint256"
                }
            ],
            "name": "RaceStarted",
            "type": "event"
        },
        {
            "anonymous": false,
            "inputs": [
                {
                    "indexed": true,
                    "internalType": "uint256",
                    "name": "raceId",
                    "type": "uint256"
                },
                {
                    "indexed": false,
                    "internalType": "enum DCRRaceFaucet.RaceStatus",
                    "name": "status",
                    "type": "uint8"
                }
            ],
            "name": "RaceStatusChange",
            "type": "event"
        },
        {
            "anonymous": false,
            "inputs": [
                {
                    "indexed": true,
                    "internalType": "uint256",
                    "name": "id",
                    "type": "uint256"
                },
                {
                    "components": [
                        {
                            "internalType": "string",
                            "name": "name",
                            "type": "string"
                        },
                        {
                            "internalType": "uint256",
                            "name": "laps",
                            "type": "uint256"
                        },
                        {
                            "internalType": "uint256",
                            "name": "id",
                            "type": "uint256"
                        },
                        {
                            "internalType": "uint256",
                            "name": "startTime",
                            "type": "uint256"
                        },
                        {
                            "internalType": "uint256",
                            "name": "finishTime",
                            "type": "uint256"
                        },
                        {
                            "internalType": "uint256",
                            "name": "currentLap",
                            "type": "uint256"
                        },
                        {
                            "internalType": "enum DCRRaceFaucet.RaceStatus",
                            "name": "status",
                            "type": "uint8"
                        },
                        {
                            "internalType": "enum DCRRaceFaucet.BetStatus",
                            "name": "betStatus",
                            "type": "uint8"
                        },
                        {
                            "internalType": "uint256",
                            "name": "startingTimestamp",
                            "type": "uint256"
                        },
                        {
                            "internalType": "uint256",
                            "name": "minBet",
                            "type": "uint256"
                        },
                        {
                            "internalType": "uint256",
                            "name": "maxBet",
                            "type": "uint256"
                        }
                    ],
                    "indexed": false,
                    "internalType": "struct DCRRaceFaucet.Race",
                    "name": "race",
                    "type": "tuple"
                }
            ],
            "name": "RaceUpdated",
            "type": "event"
        },
        {
            "inputs": [
                {
                    "internalType": "string",
                    "name": "name",
                    "type": "string"
                },
                {
                    "internalType": "string",
                    "name": "desc",
                    "type": "string"
                },
                {
                    "internalType": "string",
                    "name": "pic",
                    "type": "string"
                }
            ],
            "name": "addContestant",
            "outputs": [
                {
                    "components": [
                        {
                            "internalType": "string",
                            "name": "name",
                            "type": "string"
                        },
                        {
                            "internalType": "string",
                            "name": "description",
                            "type": "string"
                        },
                        {
                            "internalType": "uint256",
                            "name": "id",
                            "type": "uint256"
                        },
                        {
                            "internalType": "string",
                            "name": "pic",
                            "type": "string"
                        }
                    ],
                    "internalType": "struct DCRRaceFaucet.Contestant",
                    "name": "",
                    "type": "tuple"
                }
            ],
            "stateMutability": "nonpayable",
            "type": "function"
        },
        {
            "inputs": [
                {
                    "internalType": "uint256",
                    "name": "contestantId",
                    "type": "uint256"
                },
                {
                    "internalType": "uint256",
                    "name": "raceId",
                    "type": "uint256"
                },
                {
                    "internalType": "bool",
                    "name": "status",
                    "type": "bool"
                }
            ],
            "name": "addContestantToRace",
            "outputs": [],
            "stateMutability": "nonpayable",
            "type": "function"
        },
        {
            "inputs": [
                {
                    "internalType": "uint256[]",
                    "name": "oldContestantIds",
                    "type": "uint256[]"
                },
                {
                    "internalType": "uint256[]",
                    "name": "newContestantIds",
                    "type": "uint256[]"
                },
                {
                    "internalType": "uint256",
                    "name": "raceId",
                    "type": "uint256"
                }
            ],
            "name": "addContestantToRaceBatch",
            "outputs": [],
            "stateMutability": "nonpayable",
            "type": "function"
        },
        {
            "inputs": [
                {
                    "internalType": "address",
                    "name": "",
                    "type": "address"
                }
            ],
            "name": "admins",
            "outputs": [
                {
                    "internalType": "bool",
                    "name": "",
                    "type": "bool"
                }
            ],
            "stateMutability": "view",
            "type": "function"
        },
        {
            "inputs": [
                {
                    "internalType": "uint256",
                    "name": "raceId",
                    "type": "uint256"
                },
                {
                    "internalType": "uint256",
                    "name": "lap",
                    "type": "uint256"
                },
                {
                    "internalType": "uint256",
                    "name": "contestantId",
                    "type": "uint256"
                }
            ],
            "name": "claimLapResult",
            "outputs": [],
            "stateMutability": "nonpayable",
            "type": "function"
        },
        {
            "inputs": [
                {
                    "internalType": "uint256",
                    "name": "raceId",
                    "type": "uint256"
                }
            ],
            "name": "claimRaceResult",
            "outputs": [],
            "stateMutability": "nonpayable",
            "type": "function"
        },
        {
            "inputs": [
                {
                    "internalType": "uint256",
                    "name": "",
                    "type": "uint256"
                }
            ],
            "name": "contestants",
            "outputs": [
                {
                    "internalType": "string",
                    "name": "name",
                    "type": "string"
                },
                {
                    "internalType": "string",
                    "name": "description",
                    "type": "string"
                },
                {
                    "internalType": "uint256",
                    "name": "id",
                    "type": "uint256"
                },
                {
                    "internalType": "string",
                    "name": "pic",
                    "type": "string"
                }
            ],
            "stateMutability": "view",
            "type": "function"
        },
        {
            "inputs": [
                {
                    "internalType": "string",
                    "name": "name",
                    "type": "string"
                },
                {
                    "internalType": "uint256",
                    "name": "laps",
                    "type": "uint256"
                },
                {
                    "internalType": "uint256",
                    "name": "startingTimestamp",
                    "type": "uint256"
                },
                {
                    "internalType": "uint256",
                    "name": "minBet",
                    "type": "uint256"
                },
                {
                    "internalType": "uint256",
                    "name": "maxBetAmount",
                    "type": "uint256"
                }
            ],
            "name": "createRace",
            "outputs": [],
            "stateMutability": "nonpayable",
            "type": "function"
        },
        {
            "inputs": [
                {
                    "internalType": "string",
                    "name": "name",
                    "type": "string"
                },
                {
                    "internalType": "uint256",
                    "name": "laps",
                    "type": "uint256"
                },
                {
                    "internalType": "uint256",
                    "name": "minBet",
                    "type": "uint256"
                },
                {
                    "internalType": "uint256",
                    "name": "maxBetAmount",
                    "type": "uint256"
                },
                {
                    "internalType": "uint256",
                    "name": "startingTimestamp",
                    "type": "uint256"
                },
                {
                    "internalType": "uint256[]",
                    "name": "newContestantIds",
                    "type": "uint256[]"
                }
            ],
            "name": "createRaceWithContestants",
            "outputs": [],
            "stateMutability": "nonpayable",
            "type": "function"
        },
        {
            "inputs": [],
            "name": "currentBetId",
            "outputs": [
                {
                    "internalType": "uint256",
                    "name": "",
                    "type": "uint256"
                }
            ],
            "stateMutability": "view",
            "type": "function"
        },
        {
            "inputs": [],
            "name": "currentContestantId",
            "outputs": [
                {
                    "internalType": "uint256",
                    "name": "",
                    "type": "uint256"
                }
            ],
            "stateMutability": "view",
            "type": "function"
        },
        {
            "inputs": [],
            "name": "currentRaceId",
            "outputs": [
                {
                    "internalType": "uint256",
                    "name": "",
                    "type": "uint256"
                }
            ],
            "stateMutability": "view",
            "type": "function"
        },
        {
            "inputs": [
                {
                    "internalType": "uint256",
                    "name": "betId",
                    "type": "uint256"
                }
            ],
            "name": "deleteBet",
            "outputs": [],
            "stateMutability": "nonpayable",
            "type": "function"
        },
        {
            "inputs": [
                {
                    "internalType": "uint256",
                    "name": "contestantId",
                    "type": "uint256"
                }
            ],
            "name": "deleteContestant",
            "outputs": [],
            "stateMutability": "nonpayable",
            "type": "function"
        },
        {
            "inputs": [
                {
                    "internalType": "uint256",
                    "name": "raceId",
                    "type": "uint256"
                }
            ],
            "name": "deleteRace",
            "outputs": [],
            "stateMutability": "nonpayable",
            "type": "function"
        },
        {
            "inputs": [],
            "name": "getBetToken",
            "outputs": [
                {
                    "internalType": "address",
                    "name": "",
                    "type": "address"
                }
            ],
            "stateMutability": "view",
            "type": "function"
        },
        {
            "inputs": [
                {
                    "internalType": "uint256",
                    "name": "raceId",
                    "type": "uint256"
                },
                {
                    "internalType": "uint256",
                    "name": "lap",
                    "type": "uint256"
                },
                {
                    "internalType": "address",
                    "name": "participant",
                    "type": "address"
                },
                {
                    "internalType": "uint256",
                    "name": "contestantId",
                    "type": "uint256"
                }
            ],
            "name": "getLapResult",
            "outputs": [
                {
                    "internalType": "uint256",
                    "name": "",
                    "type": "uint256"
                }
            ],
            "stateMutability": "view",
            "type": "function"
        },
        {
            "inputs": [
                {
                    "internalType": "uint256",
                    "name": "raceId",
                    "type": "uint256"
                },
                {
                    "internalType": "address",
                    "name": "participant",
                    "type": "address"
                }
            ],
            "name": "getRaceResult",
            "outputs": [
                {
                    "internalType": "uint256",
                    "name": "",
                    "type": "uint256"
                }
            ],
            "stateMutability": "view",
            "type": "function"
        },
        {
            "inputs": [],
            "name": "initialize",
            "outputs": [],
            "stateMutability": "nonpayable",
            "type": "function"
        },
        {
            "inputs": [
                {
                    "internalType": "uint256",
                    "name": "",
                    "type": "uint256"
                },
                {
                    "internalType": "uint256",
                    "name": "",
                    "type": "uint256"
                }
            ],
            "name": "lapBetStatus",
            "outputs": [
                {
                    "internalType": "enum DCRRaceFaucet.BetStatus",
                    "name": "",
                    "type": "uint8"
                }
            ],
            "stateMutability": "view",
            "type": "function"
        },
        {
            "inputs": [
                {
                    "internalType": "uint256",
                    "name": "",
                    "type": "uint256"
                },
                {
                    "internalType": "uint256",
                    "name": "",
                    "type": "uint256"
                },
                {
                    "internalType": "uint256",
                    "name": "",
                    "type": "uint256"
                }
            ],
            "name": "lapBetsCount",
            "outputs": [
                {
                    "internalType": "uint256",
                    "name": "",
                    "type": "uint256"
                }
            ],
            "stateMutability": "view",
            "type": "function"
        },
        {
            "inputs": [
                {
                    "internalType": "uint256",
                    "name": "",
                    "type": "uint256"
                },
                {
                    "internalType": "address",
                    "name": "",
                    "type": "address"
                },
                {
                    "internalType": "uint256",
                    "name": "",
                    "type": "uint256"
                },
                {
                    "internalType": "uint256",
                    "name": "",
                    "type": "uint256"
                }
            ],
            "name": "lapContestantBets",
            "outputs": [
                {
                    "internalType": "uint256",
                    "name": "id",
                    "type": "uint256"
                },
                {
                    "internalType": "address",
                    "name": "bettor",
                    "type": "address"
                },
                {
                    "internalType": "uint256",
                    "name": "raceId",
                    "type": "uint256"
                },
                {
                    "internalType": "uint256",
                    "name": "lap",
                    "type": "uint256"
                },
                {
                    "internalType": "uint256",
                    "name": "amount",
                    "type": "uint256"
                },
                {
                    "internalType": "uint256",
                    "name": "contestantId",
                    "type": "uint256"
                },
                {
                    "internalType": "enum DCRRaceFaucet.BetResult",
                    "name": "result",
                    "type": "uint8"
                },
                {
                    "internalType": "enum DCRRaceFaucet.BetType",
                    "name": "betType",
                    "type": "uint8"
                },
                {
                    "internalType": "bool",
                    "name": "claimed",
                    "type": "bool"
                }
            ],
            "stateMutability": "view",
            "type": "function"
        },
        {
            "inputs": [
                {
                    "internalType": "uint256",
                    "name": "",
                    "type": "uint256"
                },
                {
                    "internalType": "uint256",
                    "name": "",
                    "type": "uint256"
                },
                {
                    "internalType": "uint256",
                    "name": "",
                    "type": "uint256"
                }
            ],
            "name": "lapContestantPoints",
            "outputs": [
                {
                    "internalType": "uint256",
                    "name": "",
                    "type": "uint256"
                }
            ],
            "stateMutability": "view",
            "type": "function"
        },
        {
            "inputs": [
                {
                    "internalType": "uint256",
                    "name": "",
                    "type": "uint256"
                },
                {
                    "internalType": "uint256",
                    "name": "",
                    "type": "uint256"
                }
            ],
            "name": "lapResults",
            "outputs": [
                {
                    "internalType": "uint256",
                    "name": "raceId",
                    "type": "uint256"
                },
                {
                    "internalType": "uint256",
                    "name": "lap",
                    "type": "uint256"
                },
                {
                    "internalType": "uint256",
                    "name": "firstPlaceContestantId",
                    "type": "uint256"
                },
                {
                    "internalType": "uint256",
                    "name": "secondPlaceContestantId",
                    "type": "uint256"
                },
                {
                    "internalType": "uint256",
                    "name": "thirdPlaceContestantId",
                    "type": "uint256"
                }
            ],
            "stateMutability": "view",
            "type": "function"
        },
        {
            "inputs": [
                {
                    "internalType": "uint256",
                    "name": "raceId",
                    "type": "uint256"
                },
                {
                    "internalType": "uint256",
                    "name": "contestantId",
                    "type": "uint256"
                },
                {
                    "internalType": "uint256",
                    "name": "amount",
                    "type": "uint256"
                },
                {
                    "internalType": "bool",
                    "name": "fullRace",
                    "type": "bool"
                },
                {
                    "internalType": "uint256",
                    "name": "lap",
                    "type": "uint256"
                }
            ],
            "name": "makeBet",
            "outputs": [],
            "stateMutability": "nonpayable",
            "type": "function"
        },
        {
            "inputs": [],
            "name": "owner",
            "outputs": [
                {
                    "internalType": "address",
                    "name": "",
                    "type": "address"
                }
            ],
            "stateMutability": "view",
            "type": "function"
        },
        {
            "inputs": [
                {
                    "internalType": "uint256",
                    "name": "",
                    "type": "uint256"
                },
                {
                    "internalType": "address",
                    "name": "",
                    "type": "address"
                }
            ],
            "name": "raceBets",
            "outputs": [
                {
                    "internalType": "uint256",
                    "name": "id",
                    "type": "uint256"
                },
                {
                    "internalType": "address",
                    "name": "bettor",
                    "type": "address"
                },
                {
                    "internalType": "uint256",
                    "name": "raceId",
                    "type": "uint256"
                },
                {
                    "internalType": "uint256",
                    "name": "lap",
                    "type": "uint256"
                },
                {
                    "internalType": "uint256",
                    "name": "amount",
                    "type": "uint256"
                },
                {
                    "internalType": "uint256",
                    "name": "contestantId",
                    "type": "uint256"
                },
                {
                    "internalType": "enum DCRRaceFaucet.BetResult",
                    "name": "result",
                    "type": "uint8"
                },
                {
                    "internalType": "enum DCRRaceFaucet.BetType",
                    "name": "betType",
                    "type": "uint8"
                },
                {
                    "internalType": "bool",
                    "name": "claimed",
                    "type": "bool"
                }
            ],
            "stateMutability": "view",
            "type": "function"
        },
        {
            "inputs": [
                {
                    "internalType": "uint256",
                    "name": "",
                    "type": "uint256"
                },
                {
                    "internalType": "uint256",
                    "name": "",
                    "type": "uint256"
                }
            ],
            "name": "raceBetsCount",
            "outputs": [
                {
                    "internalType": "uint256",
                    "name": "",
                    "type": "uint256"
                }
            ],
            "stateMutability": "view",
            "type": "function"
        },
        {
            "inputs": [
                {
                    "internalType": "uint256",
                    "name": "",
                    "type": "uint256"
                },
                {
                    "internalType": "uint256",
                    "name": "",
                    "type": "uint256"
                }
            ],
            "name": "raceContestantPoints",
            "outputs": [
                {
                    "internalType": "uint256",
                    "name": "",
                    "type": "uint256"
                }
            ],
            "stateMutability": "view",
            "type": "function"
        },
        {
            "inputs": [
                {
                    "internalType": "uint256",
                    "name": "",
                    "type": "uint256"
                },
                {
                    "internalType": "uint256",
                    "name": "",
                    "type": "uint256"
                }
            ],
            "name": "raceContestants",
            "outputs": [
                {
                    "internalType": "bool",
                    "name": "",
                    "type": "bool"
                }
            ],
            "stateMutability": "view",
            "type": "function"
        },
        {
            "inputs": [
                {
                    "internalType": "uint256",
                    "name": "",
                    "type": "uint256"
                }
            ],
            "name": "raceResults",
            "outputs": [
                {
                    "internalType": "uint256",
                    "name": "raceId",
                    "type": "uint256"
                },
                {
                    "internalType": "uint256",
                    "name": "firstPlaceContestantId",
                    "type": "uint256"
                },
                {
                    "internalType": "uint256",
                    "name": "secondPlaceContestantId",
                    "type": "uint256"
                },
                {
                    "internalType": "uint256",
                    "name": "thirdPlaceContestantId",
                    "type": "uint256"
                },
                {
                    "internalType": "uint256",
                    "name": "winnerPoints",
                    "type": "uint256"
                },
                {
                    "internalType": "bool",
                    "name": "finalResult",
                    "type": "bool"
                }
            ],
            "stateMutability": "view",
            "type": "function"
        },
        {
            "inputs": [
                {
                    "internalType": "uint256",
                    "name": "",
                    "type": "uint256"
                }
            ],
            "name": "races",
            "outputs": [
                {
                    "internalType": "string",
                    "name": "name",
                    "type": "string"
                },
                {
                    "internalType": "uint256",
                    "name": "laps",
                    "type": "uint256"
                },
                {
                    "internalType": "uint256",
                    "name": "id",
                    "type": "uint256"
                },
                {
                    "internalType": "uint256",
                    "name": "startTime",
                    "type": "uint256"
                },
                {
                    "internalType": "uint256",
                    "name": "finishTime",
                    "type": "uint256"
                },
                {
                    "internalType": "uint256",
                    "name": "currentLap",
                    "type": "uint256"
                },
                {
                    "internalType": "enum DCRRaceFaucet.RaceStatus",
                    "name": "status",
                    "type": "uint8"
                },
                {
                    "internalType": "enum DCRRaceFaucet.BetStatus",
                    "name": "betStatus",
                    "type": "uint8"
                },
                {
                    "internalType": "uint256",
                    "name": "startingTimestamp",
                    "type": "uint256"
                },
                {
                    "internalType": "uint256",
                    "name": "minBet",
                    "type": "uint256"
                },
                {
                    "internalType": "uint256",
                    "name": "maxBet",
                    "type": "uint256"
                }
            ],
            "stateMutability": "view",
            "type": "function"
        },
        {
            "inputs": [],
            "name": "renounceOwnership",
            "outputs": [],
            "stateMutability": "nonpayable",
            "type": "function"
        },
        {
            "inputs": [
                {
                    "internalType": "address",
                    "name": "newToken",
                    "type": "address"
                }
            ],
            "name": "setBetToken",
            "outputs": [],
            "stateMutability": "nonpayable",
            "type": "function"
        },
        {
            "inputs": [
                {
                    "internalType": "uint256",
                    "name": "raceId",
                    "type": "uint256"
                },
                {
                    "internalType": "uint256",
                    "name": "lap",
                    "type": "uint256"
                },
                {
                    "internalType": "uint256",
                    "name": "first",
                    "type": "uint256"
                },
                {
                    "internalType": "uint256",
                    "name": "second",
                    "type": "uint256"
                },
                {
                    "internalType": "uint256",
                    "name": "third",
                    "type": "uint256"
                }
            ],
            "name": "setLapResult",
            "outputs": [],
            "stateMutability": "nonpayable",
            "type": "function"
        },
        {
            "inputs": [
                {
                    "internalType": "uint8",
                    "name": "first",
                    "type": "uint8"
                },
                {
                    "internalType": "uint8",
                    "name": "second",
                    "type": "uint8"
                },
                {
                    "internalType": "uint8",
                    "name": "third",
                    "type": "uint8"
                }
            ],
            "name": "setPoints",
            "outputs": [],
            "stateMutability": "nonpayable",
            "type": "function"
        },
        {
            "inputs": [
                {
                    "internalType": "uint256",
                    "name": "raceId",
                    "type": "uint256"
                }
            ],
            "name": "setRaceResult",
            "outputs": [],
            "stateMutability": "nonpayable",
            "type": "function"
        },
        {
            "inputs": [
                {
                    "internalType": "uint256",
                    "name": "first",
                    "type": "uint256"
                },
                {
                    "internalType": "uint256",
                    "name": "second",
                    "type": "uint256"
                },
                {
                    "internalType": "uint256",
                    "name": "third",
                    "type": "uint256"
                }
            ],
            "name": "setWinPercents",
            "outputs": [],
            "stateMutability": "nonpayable",
            "type": "function"
        },
        {
            "inputs": [
                {
                    "internalType": "uint256",
                    "name": "raceId",
                    "type": "uint256"
                },
                {
                    "internalType": "uint256",
                    "name": "lap",
                    "type": "uint256"
                }
            ],
            "name": "startLap",
            "outputs": [],
            "stateMutability": "nonpayable",
            "type": "function"
        },
        {
            "inputs": [
                {
                    "internalType": "uint256",
                    "name": "raceId",
                    "type": "uint256"
                }
            ],
            "name": "startRace",
            "outputs": [],
            "stateMutability": "nonpayable",
            "type": "function"
        },
        {
            "inputs": [
                {
                    "internalType": "uint256",
                    "name": "",
                    "type": "uint256"
                },
                {
                    "internalType": "uint256",
                    "name": "",
                    "type": "uint256"
                }
            ],
            "name": "totalLapBet",
            "outputs": [
                {
                    "internalType": "uint256",
                    "name": "",
                    "type": "uint256"
                }
            ],
            "stateMutability": "view",
            "type": "function"
        },
        {
            "inputs": [
                {
                    "internalType": "uint256",
                    "name": "",
                    "type": "uint256"
                },
                {
                    "internalType": "uint256",
                    "name": "",
                    "type": "uint256"
                },
                {
                    "internalType": "uint256",
                    "name": "",
                    "type": "uint256"
                }
            ],
            "name": "totalLapContestantBet",
            "outputs": [
                {
                    "internalType": "uint256",
                    "name": "",
                    "type": "uint256"
                }
            ],
            "stateMutability": "view",
            "type": "function"
        },
        {
            "inputs": [
                {
                    "internalType": "uint256",
                    "name": "",
                    "type": "uint256"
                }
            ],
            "name": "totalRaceBet",
            "outputs": [
                {
                    "internalType": "uint256",
                    "name": "",
                    "type": "uint256"
                }
            ],
            "stateMutability": "view",
            "type": "function"
        },
        {
            "inputs": [
                {
                    "internalType": "uint256",
                    "name": "",
                    "type": "uint256"
                },
                {
                    "internalType": "uint256",
                    "name": "",
                    "type": "uint256"
                }
            ],
            "name": "totalRaceContestantBet",
            "outputs": [
                {
                    "internalType": "uint256",
                    "name": "",
                    "type": "uint256"
                }
            ],
            "stateMutability": "view",
            "type": "function"
        },
        {
            "inputs": [
                {
                    "internalType": "address",
                    "name": "newOwner",
                    "type": "address"
                }
            ],
            "name": "transferOwnership",
            "outputs": [],
            "stateMutability": "nonpayable",
            "type": "function"
        },
        {
            "inputs": [
                {
                    "internalType": "address",
                    "name": "addr",
                    "type": "address"
                },
                {
                    "internalType": "bool",
                    "name": "setAdmin",
                    "type": "bool"
                }
            ],
            "name": "updateAdmin",
            "outputs": [],
            "stateMutability": "nonpayable",
            "type": "function"
        },
        {
            "inputs": [
                {
                    "internalType": "uint256",
                    "name": "contestantId",
                    "type": "uint256"
                },
                {
                    "internalType": "string",
                    "name": "name",
                    "type": "string"
                },
                {
                    "internalType": "string",
                    "name": "desc",
                    "type": "string"
                },
                {
                    "internalType": "string",
                    "name": "pic",
                    "type": "string"
                }
            ],
            "name": "updateContestant",
            "outputs": [],
            "stateMutability": "nonpayable",
            "type": "function"
        },
        {
            "inputs": [
                {
                    "internalType": "uint256",
                    "name": "raceId",
                    "type": "uint256"
                },
                {
                    "internalType": "string",
                    "name": "name",
                    "type": "string"
                },
                {
                    "internalType": "uint256",
                    "name": "laps",
                    "type": "uint256"
                },
                {
                    "internalType": "uint256",
                    "name": "startingTimestamp",
                    "type": "uint256"
                },
                {
                    "internalType": "uint256",
                    "name": "minBet",
                    "type": "uint256"
                },
                {
                    "internalType": "uint256",
                    "name": "maxBet",
                    "type": "uint256"
                }
            ],
            "name": "updateRace",
            "outputs": [],
            "stateMutability": "nonpayable",
            "type": "function"
        },
        {
            "inputs": [
                {
                    "internalType": "uint256",
                    "name": "raceId",
                    "type": "uint256"
                },
                {
                    "internalType": "string",
                    "name": "name",
                    "type": "string"
                },
                {
                    "internalType": "uint256",
                    "name": "laps",
                    "type": "uint256"
                },
                {
                    "internalType": "uint256",
                    "name": "minBet",
                    "type": "uint256"
                },
                {
                    "internalType": "uint256",
                    "name": "maxBet",
                    "type": "uint256"
                },
                {
                    "internalType": "uint256",
                    "name": "startingTimestamp",
                    "type": "uint256"
                },
                {
                    "internalType": "uint256[]",
                    "name": "oldContestantIds",
                    "type": "uint256[]"
                },
                {
                    "internalType": "uint256[]",
                    "name": "newContestantIds",
                    "type": "uint256[]"
                }
            ],
            "name": "updateRaceWithContestants",
            "outputs": [],
            "stateMutability": "nonpayable",
            "type": "function"
        },
        {
            "inputs": [
                {
                    "internalType": "uint256",
                    "name": "",
                    "type": "uint256"
                }
            ],
            "name": "winPercents",
            "outputs": [
                {
                    "internalType": "uint256",
                    "name": "",
                    "type": "uint256"
                }
            ],
            "stateMutability": "view",
            "type": "function"
        }
    ],
    "bytecode": "0x608060405234801561001057600080fd5b50614b4c806100206000396000f3fe608060405234801561001057600080fd5b50600436106103345760003560e01c80637b89ca53116101b2578063bf0603aa116100f9578063da510a27116100a2578063eb9b744a1161007c578063eb9b744a14610992578063f2fde38b146109b2578063f367508f146109c5578063f67a670e146109d857600080fd5b8063da510a2714610953578063dfd50f5214610966578063e01a6ee11461098957600080fd5b8063ce59549c116100d3578063ce59549c146108ea578063cebd3ca114610915578063d17e93d21461094057600080fd5b8063bf0603aa1461087b578063c018643b1461088e578063c8434f49146108bf57600080fd5b80639ad9d5011161015b578063bb642bb811610135578063bb642bb814610844578063bb64578614610857578063bebcc4081461086857600080fd5b80639ad9d501146107a3578063ab76482e146107ac578063b76149f51461083157600080fd5b806383e509ea1161018c57806383e509ea1461074b578063843ddc0b1461076b5780638da5cb5b1461077e57600080fd5b80637b89ca531461068e5780637bbc469e146107195780638129fc1c1461074357600080fd5b80633a9b2bb31161028157806359647fc61161022a5780636673dea9116102045780636673dea91461062f578063670a6fd914610660578063715018a6146106735780637b3dbea81461067b57600080fd5b806359647fc61461059e5780635a407e47146106135780635b4a9b511461062657600080fd5b8063478ca2911161025b578063478ca291146105325780634f4de48b146105605780635481860d1461058b57600080fd5b80633a9b2bb31461047c578063429b62e5146104ec578063456246e61461051f57600080fd5b80631fa6a9a2116102e357806326011e28116102bd57806326011e28146104255780632d07d411146104385780632fbaa8191461046957600080fd5b80631fa6a9a2146103de578063243cf50c146103f157806324d822bf1461041257600080fd5b806305fcde1c1161031457806305fcde1c146103a55780631c8e64e3146103b85780631f536a57146103cb57600080fd5b80623652a514610339578062df20851461034e578063039a07d414610361575b600080fd5b61034c610347366004613d4a565b6109eb565b005b61034c61035c366004613dd3565b610a81565b61038f61036f366004613e0e565b606b60209081526000928352604080842090915290825290205460ff1681565b60405161039c9190613e63565b60405180910390f35b61034c6103b3366004613e76565b610dc3565b61034c6103c6366004613e76565b610f42565b61034c6103d9366004613e8f565b611084565b61034c6103ec366004613ebb565b6110ce565b6104046103ff366004613f90565b61110d565b60405190815260200161039c565b61034c610420366004613e76565b61124a565b61034c610433366004613e76565b61148c565b610404610446366004613e8f565b607660209081526000938452604080852082529284528284209052825290205481565b610404610477366004613fbc565b611535565b6104c461048a366004613e0e565b606e602090815260009283526040808420909152908252902080546001820154600283015460038401546004909401549293919290919085565b604080519586526020860194909452928401919091526060830152608082015260a00161039c565b61050f6104fa366004613ff9565b60706020526000908152604090205460ff1681565b604051901515815260200161039c565b61034c61052d366004613e8f565b611697565b61050f610540366004613e0e565b606a60209081526000928352604080842090915290825290205460ff1681565b61040461056e366004613e0e565b607e60209081526000928352604080842090915290825290205481565b61034c610599366004614029565b6117a6565b6105e46105ac366004613e76565b606d60205260009081526040902080546001820154600283015460038401546004850154600590950154939492939192909160ff1686565b6040805196875260208701959095529385019290925260608401526080830152151560a082015260c00161039c565b61034c610621366004614073565b6118cb565b61040460685481565b61040461063d366004613e8f565b607f60209081526000938452604080852082529284528284209052825290205481565b61034c61066e3660046140b6565b61191d565b61034c611950565b61034c6106893660046140ed565b611964565b61070461069c366004613f90565b6071602090815260009283526040808420909152908252902080546001820154600283015460038401546004850154600586015460069096015494956001600160a01b03909416949293919290919060ff808216916101008104821691620100009091041689565b60405161039c9998979695949392919061418f565b61072c610727366004613e76565b611a33565b60405161039c9b9a99989796959493929190614252565b61034c611b19565b610404610759366004613e76565b60736020526000908152604090205481565b61034c610779366004613ff9565b611ce8565b6033546001600160a01b03165b6040516001600160a01b03909116815260200161039c565b61040460665481565b6107046107ba3660046142c8565b607d602090815260009485526040808620825293855283852081529184528284209091528252902080546001820154600283015460038401546004850154600586015460069096015494956001600160a01b03909416949293919290919060ff808216916101008104821691620100009091041689565b61034c61083f366004614303565b611d12565b61034c610852366004613e76565b611d83565b6069546001600160a01b031661078b565b61034c610876366004614360565b6121ea565b61034c6108893660046143ca565b6122d0565b61040461089c366004613e8f565b607b60209081526000938452604080852082529284528284209052825290205481565b6104046108cd366004613e0e565b607560209081526000928352604080842090915290825290205481565b6104046108f8366004613e0e565b607a60209081526000928352604080842090915290825290205481565b610404610923366004613e0e565b607460209081526000928352604080842090915290825290205481565b61040461094e366004613e76565b612c4c565b61034c610961366004613e0e565b612c63565b610979610974366004613e76565b612ef5565b60405161039c9493929190614413565b61040460675481565b6109a56109a0366004614452565b6130b5565b60405161039c91906144da565b61034c6109c0366004613ff9565b613365565b61034c6109d3366004613e76565b6133f2565b61034c6109e636600461453c565b61347d565b3360009081526070602052604090205460ff16610a0757600080fd5b6000610a1687878588886134d7565b6040805160008082526020820190925291925050610a3981848460400151613718565b81604001517ffb891e49dc33866185ad15a20780d46e4136727ba0c060e0a42530ab08f124048385604051610a6f92919061467e565b60405180910390a25050505050505050565b3360009081526070602052604090205460ff16610a9d57600080fd5b6000858152606e602090815260408083208784529091529020805415610b0a5760405162461bcd60e51b815260206004820152601f60248201527f596f752063616e74206368616e6765206578697374696e6720726573756c740060448201526064015b60405180910390fd5b6000868152606c6020908152604080832089855560018086018a9055600286018990556003860188905560048601879055606b84528285208a86528452828520805460ff19169091179055607c80548b8652607b85528386208b875285528386208a8752855283862060ff91821690558154898752848720610100909104821690558154888752848720620100009091048216905590548b8652607a85528386208a875290945291842080549194939092169290610bc99084906146b9565b9091555050607c546000888152607a602090815260408083208884529091528120805461010090930460ff1692909190610c049084906146b9565b9091555050607c546000888152607a60209081526040808320878452909152812080546201000090930460ff1692909190610c409084906146b9565b90915550506000878152606d602052604090208054610ca15760405162461bcd60e51b815260206004820152601f60248201527f5261636520726573756c742073686f756c6420626520696e69746961746564006044820152606401610b01565b60048101546000898152607a602090815260408083208a84529091529020541115610ced576000888152607a602090815260408083208984529091529020546004820155600181018690555b60408051888152602081018890529081018690526060810185905288907fe523e6550e15c0014226b96458e206bb3f030b1c6f87ea4610889f2f59a67a6b9060800160405180910390a286887fa9f7a7048efea37c84d82026bef73e193bab1aa80a6de3e1f14839c225c01d986001604051610d699190613e63565b60405180910390a36000888152606b6020526040812081610d8b8a60016146b9565b81526020810191909152604001600020805460ff191660018381811115610db457610db4613e30565b02179055505050505050505050565b3360009081526070602052604090205460ff16610ddf57600080fd5b6000818152606d602052604090208054610e3b5760405162461bcd60e51b815260206004820152601f60248201527f5261636520726573756c742073686f756c6420626520696e69746961746564006044820152606401610b01565b6005808201805460ff191660019081179091556000848152606c602052604090209081015491810154909114610eb35760405162461bcd60e51b815260206004820152601760248201527f52616365206c61702073686f756c64206265206c6173740000000000000000006044820152606401610b01565b60068101805461ffff19166101031790554260048201556001820154604080519182525184917fd3e8ecef5b46e84f11a8481a5fdf9fd1c095079cc27773885f3fc9389d7757b1919081900360200190a2827f81cc51d03f2329809265bc7abd63cc8a2af256dfc54d738c3fb3d56d203d2a2c6003604051610f3591906146d1565b60405180910390a2505050565b60008181526071602090815260408083203384529091529020600681015462010000900460ff1615610fb65760405162461bcd60e51b815260206004820152601660248201527f52657761726420616c726561647920636c61696d6564000000000000000000006044820152606401610b01565b6000610fc2833361110d565b60068301805462ff000019166201000017905560695460405163a9059cbb60e01b8152336004820152602481018390529192506001600160a01b03169063a9059cbb906044016020604051808303816000875af1158015611027573d6000803e3d6000fd5b505050506040513d601f19601f8201168201806040525081019061104b91906146df565b50604080513381526020810183905284917f83e6a7870bef47cce968225f3e83179b3b8608e0754b4e5e70d76da2c2be2c289101610f35565b3360009081526070602052604090205460ff166110a057600080fd5b60408051606081018252848152602081018490529081018290526110c8906077906003613ae8565b50505050565b3360009081526070602052604090205460ff166110ea57600080fd5b6110f88888888689896121ea565b61110382828a61347d565b5050505050505050565b6000828152606d60205260408120600181015461116c5760405162461bcd60e51b815260206004820152601860248201527f5261636520726573756c747320756e617661696c61626c6500000000000000006044820152606401610b01565b60008481526071602090815260408083206001600160a01b0387168452909152902060048101546111df5760405162461bcd60e51b815260206004820152601660248201527f4265742077617320776974686f757420616d6f756e74000000000000000000006044820152606401610b01565b6000858152606c60209081526040808320607e83528184206005860154808652908452828520548a865260739094529190932054600186015490910361123a5761122e81838660040154613939565b95505050505050611244565b6000955050505050505b92915050565b3360009081526070602052604090205460ff1661126657600080fd5b6000818152606c6020526040902060028101546112b75760405162461bcd60e51b815260206004820152600f60248201526e52616365206e6f742065786973747360881b6044820152606401610b01565b60068101805461ffff1916610102179055426003820155600160058083018290556000848152606b602090815260408083208584528252808320805460ff199081169096179055868352606d90915280822086815592830180549094169093559151909184917fd8a537561d247cabc83980738b2fd3771513f9b3a4b696b3fead967d36efe7da9190a260405160019084907f8063c156253467da0af28ccd7b69bd7bd5cfc241089d81839b0e05204d80113590600090a3827ff82e9dfcd7d107013a83acfc48f9ccdff60daad3a19ce2eb74fcee49cd1d896860016040516113a09190613e63565b60405180910390a2827f81cc51d03f2329809265bc7abd63cc8a2af256dfc54d738c3fb3d56d203d2a2c60026040516113d991906146d1565b60405180910390a26001837fa9f7a7048efea37c84d82026bef73e193bab1aa80a6de3e1f14839c225c01d9860016040516114149190613e63565b60405180910390a3600182600101541115611487576002837fa9f7a7048efea37c84d82026bef73e193bab1aa80a6de3e1f14839c225c01d98600060405161145c9190613e63565b60405180910390a36000838152606b60209081526040808320600284529091529020805460ff191690555b505050565b3360009081526070602052604090205460ff166114a857600080fd5b6000818152606c60205260408120906114c18282613b26565b506000600182018190556002820181905560038201819055600482018190556005820181905560068201805461ffff191690556007820181905560088201819055600990910181905560405182917f73621c760ad0f95250ecb5a7d1d7255a22e830dd70fcb48c0802452bd7d2550791a250565b6000848152606e602090815260408083208684529091528120600281015461159f5760405162461bcd60e51b815260206004820152601760248201527f4c617020726573756c747320756e617661696c61626c650000000000000000006044820152606401610b01565b6000868152607d602090815260408083206001600160a01b038816845282528083208884528252808320868452909152902060048101546116225760405162461bcd60e51b815260206004820152601660248201527f4265742077617320776974686f757420616d6f756e74000000000000000000006044820152606401610b01565b6000878152607f6020908152604080832089845282528083206005850154808552908352818420548b8552607484528285208b865290935292205460028501549192909190036116865761167b81838560040154613939565b94505050505061168f565b60009450505050505b949350505050565b6000838152607d60209081526040808320338085529083528184208685528352818420858552909252822091906116d2908690869086611535565b60068301805462ff000019166201000017905560695460405163a9059cbb60e01b8152336004820152602481018390529192506001600160a01b03169063a9059cbb906044016020604051808303816000875af1158015611737573d6000803e3d6000fd5b505050506040513d601f19601f8201168201806040525081019061175b91906146df565b506040805185815233602082015290810182905285907fcf712fb3f8dc6a43efb2dbf283f645b91fbdef08ce9ba34d1109c26d03a66cb5906060015b60405180910390a25050505050565b3360009081526070602052604090205460ff166117c257600080fd5b6000838152606f60205260409020600201546118185760405162461bcd60e51b8152602060048201526015602482015274436f6e74657374616e74206e6f742065786973747360581b6044820152606401610b01565b6000828152606c60205260409020600201546118685760405162461bcd60e51b815260206004820152600f60248201526e52616365206e6f742065786973747360881b6044820152606401610b01565b6000828152606a60209081526040808320868452825291829020805460ff19168415159081179091559151918252849184917f402aab16a3f9834737f09b58044d0dc09ed076aec77d61c06f98ef645c3f492291015b60405180910390a3505050565b3360009081526070602052604090205460ff166118e757600080fd5b607c805460ff94851661ffff1990911617610100938516939093029290921762ff00001916620100009190931602919091179055565b61192561395a565b6001600160a01b03919091166000908152607060205260409020805460ff1916911515919091179055565b61195861395a565b61196260006139b4565b565b3360009081526070602052604090205460ff1661198057600080fd5b6000848152606f60205260409020600281015485146119d95760405162461bcd60e51b8152602060048201526015602482015274436f6e74657374616e74206e6f742065786973747360581b6044820152606401610b01565b806119e48582614784565b50600181016119f38482614784565b5060038101611a028382614784565b50847fe9e004b10ecbceceefd0d414121d65fb18eeebe3b6e8884770c7b5bc9d1ba42b8260405161179791906148c1565b606c60205260009081526040902080548190611a4e906146fc565b80601f0160208091040260200160405190810160405280929190818152602001828054611a7a906146fc565b8015611ac75780601f10611a9c57610100808354040283529160200191611ac7565b820191906000526020600020905b815481529060010190602001808311611aaa57829003601f168201915b50505060018401546002850154600386015460048701546005880154600689015460078a015460088b01546009909b0154999a96999598509396509194909360ff80841694610100909404169291908b565b600054610100900460ff1615808015611b395750600054600160ff909116105b80611b535750303b158015611b53575060005460ff166001145b611bc55760405162461bcd60e51b815260206004820152602e60248201527f496e697469616c697a61626c653a20636f6e747261637420697320616c72656160448201527f647920696e697469616c697a65640000000000000000000000000000000000006064820152608401610b01565b6000805460ff191660011790558015611be8576000805461ff0019166101001790555b611bf0613a06565b69d3c21bcecceda10000006065553360009081526070602090815260408083208054600160ff19918216811790925573b844dee35883565cca2147424501693b3cd1a7979094527f9ad9faf5f0072e742095c245c337db4fe254708edb600eea0a3ed6d12a1a61ab805490941617909255815160608101835260418152601991810191909152600591810191909152611c8d906077906003613b60565b50607c805462ffffff1916620103051790558015611ce5576000805461ff0019169055604051600181527f7f26b83ff96e1f2b6a682f133852f6798a09c465da95921460cefb38474024989060200160405180910390a15b50565b611cf061395a565b606980546001600160a01b0319166001600160a01b0392909216919091179055565b3360009081526070602052604090205460ff16611d2e57600080fd5b6000611d3d86868686866134d7565b905080604001517fe94d1571a5bc7cc8b2617d52ecc69486d570b2c3f16f3e4b87f084a0b93d614982604051611d739190614919565b60405180910390a2505050505050565b3360009081526070602052604090205460ff16611d9f57600080fd5b60008181526072602052604090208054611dfb5760405162461bcd60e51b815260206004820152600e60248201527f426574206e6f74206578697374730000000000000000000000000000000000006044820152606401610b01565b60016006820154610100900460ff166001811115611e1b57611e1b613e30565b03611fe3576004810154600282015460009081526074602090815260408083206003860154845290915281208054909190611e5790849061492c565b909155505060695460048281015460405163a9059cbb60e01b8152339281019290925260248201526001600160a01b039091169063a9059cbb906044016020604051808303816000875af1158015611eb3573d6000803e3d6000fd5b505050506040513d601f19601f82011682018060405250810190611ed791906146df565b5060028101546000908152607660209081526040808320600385015484528252808320600585015484529091528120805491611f1283614943565b9091555050600481015460028201546000908152607f602090815260408083206003860154845282528083206005860154845290915281208054909190611f5a90849061492c565b90915550506002808201546000908152607d602090815260408083206001808701546001600160a01b0316855290835281842060038088015486529084528285206005808901548752945291842084815590810180546001600160a01b0319169055938401839055830182905560048301829055820155600601805462ffffff19169055612162565b600481015460028201546000908152607360205260408120805490919061200b90849061492c565b9091555050600481015460028201546000908152607e60209081526040808320600586015484529091528120805490919061204790849061492c565b909155505060695460048281015460405163a9059cbb60e01b8152339281019290925260248201526001600160a01b039091169063a9059cbb906044016020604051808303816000875af11580156120a3573d6000803e3d6000fd5b505050506040513d601f19601f820116820180604052508101906120c791906146df565b50600281015460009081526075602090815260408083206005850154845290915281208054916120f683614943565b909155505060028082015460009081526071602090815260408083206001808701546001600160a01b031685529252822082815590810180546001600160a01b031916905591820181905560038201819055600482018190556005820155600601805462ffffff191690555b817f249a0057aa29737c2c2e7c235bf9fe93d4c32de9ca0aef52658a05d34043c51182604051612192919061495a565b60405180910390a25060009081526072602052604081208181556001810180546001600160a01b03191690556002810182905560038101829055600481018290556005810191909155600601805462ffffff19169055565b3360009081526070602052604090205460ff1661220657600080fd5b6000868152606c60205260409020600281015487146122595760405162461bcd60e51b815260206004820152600f60248201526e52616365206e6f742065786973747360881b6044820152606401610b01565b806122648782614784565b506001810185905560068101805460ff1916905560078101849055600881018390556009810182905560405187907f6201db8bebc47b4896bd54e958cda85082de3b671daad937b45cde06bd59d0aa906122bf9084906149e3565b60405180910390a250505050505050565b6065548311156123225760405162461bcd60e51b815260206004820181905260248201527f616d6f756e742073686f756c64206e6f7420657863656564206d6178206265746044820152606401610b01565b818061232e5750600081115b61237a5760405162461bcd60e51b815260206004820152600b60248201527f496e76616c6964206c61700000000000000000000000000000000000000000006044820152606401610b01565b6069546040517f23b872dd000000000000000000000000000000000000000000000000000000008152336004820152306024820152604481018590526001600160a01b03909116906323b872dd906064016020604051808303816000875af11580156123ea573d6000803e3d6000fd5b505050506040513d601f19601f8201168201806040525081019061240e91906146df565b506000858152606c60205260409020600281015486146124625760405162461bcd60e51b815260206004820152600f60248201526e52616365206e6f742065786973747360881b6044820152606401610b01565b8060080154841015801561247a575080600901548411155b6124ec5760405162461bcd60e51b815260206004820152602160248201527f596f757220626574206973206f7574206f662072657175697265642072616e6760448201527f65000000000000000000000000000000000000000000000000000000000000006064820152608401610b01565b6000858152606f60205260409020600281015486146125455760405162461bcd60e51b8152602060048201526015602482015274436f6e74657374616e74206e6f742065786973747360581b6044820152606401610b01565b600060686000815461255690614a82565b918290555060008181526072602052604090208181556001810180546001600160a01b0319163317905560048101889055600281018a905560058101899055909150851561285f576000600685015460ff1660038111156125b9576125b9613e30565b146126065760405162461bcd60e51b815260206004820152601860248201527f52616365206d757374206e6f74206265206f6e676f696e6700000000000000006044820152606401610b01565b60006006850154610100900460ff16600181111561262657612626613e30565b146126735760405162461bcd60e51b815260206004820152601960248201527f42657473206f6e2072616365206d757374206265206f70656e000000000000006044820152606401610b01565b6000898152607160209081526040808320338452909152902054156126da5760405162461bcd60e51b815260206004820181905260248201527f596f757220626574206f6e207261636520616c726561647920637265617465646044820152606401610b01565b6006818101805461ff001916815560008b815260716020908152604080832033845290915290208354815560018085015482820180546001600160a01b0319166001600160a01b0390921691909117905560028086015481840155600380870154908401556004808701549084015560058087015490840155925493820180548695939460ff90941693919260ff1990911691849081111561277e5761277e613e30565b0217905550600682810154908201805460ff61010093849004169261ff0019909116908360018111156127b3576127b3613e30565b02179055506006918201549101805462ff00001916620100009283900460ff161515909202919091179055600089815260736020526040812080548992906127fc9084906146b9565b909155505060008981526075602090815260408083208b8452909152812080549161282683614a82565b90915550506000898152607e602090815260408083208b8452909152812080548992906128549084906146b9565b90915550612c099050565b6000600685015460ff16600381111561287a5761287a613e30565b148061289e57506002600685015460ff16600381111561289c5761289c613e30565b145b6128ea5760405162461bcd60e51b815260206004820152601b60248201527f5261636520626574732063616e206e6f7420626520636c6f73656400000000006044820152606401610b01565b848460010154101561293e5760405162461bcd60e51b815260206004820152601b60248201527f596f752063616e7420626574206f6e20696e76616c6964206c617000000000006044820152606401610b01565b6000898152606b6020908152604080832088845290915281205460ff16600181111561296c5761296c613e30565b146129b95760405162461bcd60e51b815260206004820152601860248201527f42657473206f6e206c6170206d757374206265206f70656e00000000000000006044820152606401610b01565b6000898152607d60209081526040808320338452825280832088845282528083208b845290915290205415612a565760405162461bcd60e51b815260206004820152602e60248201527f596f757220626574206f6e206c617020616e6420636f6e74657374616e74206160448201527f6c726561647920637265617465640000000000000000000000000000000000006064820152608401610b01565b6006818101805461ff001916610100178155600380840188815560008d8152607d6020908152604080832033845282528083208c845282528083208f845290915290208554815560018087015482820180546001600160a01b0319166001600160a01b0390921691909117905560028088015481840155925493820193909355600480870154908201556005808701549082015592549383018054869560ff1693919260ff1990911691908490811115612b1257612b12613e30565b0217905550600682810154908201805460ff61010093849004169261ff001990911690836001811115612b4757612b47613e30565b02179055506006918201549101805462ff00001916620100009283900460ff161515909202919091179055600089815260746020908152604080832088845290915281208054899290612b9b9084906146b9565b90915550506000898152607f6020908152604080832088845282528083208b845290915281208054899290612bd19084906146b9565b9091555050600089815260766020908152604080832088845282528083208b84529091528120805491612c0383614a82565b91905055505b817fe6c8fd3c78e0300fb49eaf21f4b790ce70a502dc66b6f0a158da865678e79fcb82604051612c39919061495a565b60405180910390a2505050505050505050565b60778160038110612c5c57600080fd5b0154905081565b3360009081526070602052604090205460ff16612c7f57600080fd5b6000828152606c602052604090206002810154612cd05760405162461bcd60e51b815260206004820152600f60248201526e52616365206e6f742065786973747360881b6044820152606401610b01565b8181600101541015612d245760405162461bcd60e51b815260206004820152600d60248201527f57726f6e67204c6170204e756d000000000000000000000000000000000000006044820152606401610b01565b60018211612d745760405162461bcd60e51b815260206004820152601760248201527f4c61702073686f756c64206265206e65787420746f20310000000000000000006044820152606401610b01565b6002600682015460ff166003811115612d8f57612d8f613e30565b14612ddc5760405162461bcd60e51b815260206004820152601660248201527f526163652073686f756c64206265206f6e676f696e67000000000000000000006044820152606401610b01565b426003820155600581018290556000838152606b60209081526040808320858452909152808220805460ff1916600117905551839185917f8063c156253467da0af28ccd7b69bd7bd5cfc241089d81839b0e05204d8011359190a381837fa9f7a7048efea37c84d82026bef73e193bab1aa80a6de3e1f14839c225c01d986001604051612e699190613e63565b60405180910390a36000838152606b6020526040812081612e8b8560016146b9565b81526020810191909152604001600020805460ff191660018381811115612eb457612eb4613e30565b0217905550612ec48260016146b9565b837fa9f7a7048efea37c84d82026bef73e193bab1aa80a6de3e1f14839c225c01d9860006040516118be9190613e63565b606f60205260009081526040902080548190612f10906146fc565b80601f0160208091040260200160405190810160405280929190818152602001828054612f3c906146fc565b8015612f895780601f10612f5e57610100808354040283529160200191612f89565b820191906000526020600020905b815481529060010190602001808311612f6c57829003601f168201915b505050505090806001018054612f9e906146fc565b80601f0160208091040260200160405190810160405280929190818152602001828054612fca906146fc565b80156130175780601f10612fec57610100808354040283529160200191613017565b820191906000526020600020905b815481529060010190602001808311612ffa57829003601f168201915b505050505090806002015490806003018054613032906146fc565b80601f016020809104026020016040519081016040528092919081815260200182805461305e906146fc565b80156130ab5780601f10613080576101008083540402835291602001916130ab565b820191906000526020600020905b81548152906001019060200180831161308e57829003601f168201915b5050505050905084565b6130e06040518060800160405280606081526020016060815260200160008152602001606081525090565b3360009081526070602052604090205460ff166130fc57600080fd5b600060676000815461310d90614a82565b91829055506000818152606f602052604090209091508061312e8782614784565b506001810161313d8682614784565b506003810161314c8582614784565b50818160020181905550817f6698b1435889bbae26e1aa2ef6de017995da80a300aa1148135b671a57650b4a8260405161318691906148c1565b60405180910390a2806040518060800160405290816000820180546131aa906146fc565b80601f01602080910402602001604051908101604052809291908181526020018280546131d6906146fc565b80156132235780601f106131f857610100808354040283529160200191613223565b820191906000526020600020905b81548152906001019060200180831161320657829003601f168201915b5050505050815260200160018201805461323c906146fc565b80601f0160208091040260200160405190810160405280929190818152602001828054613268906146fc565b80156132b55780601f1061328a576101008083540402835291602001916132b5565b820191906000526020600020905b81548152906001019060200180831161329857829003601f168201915b50505050508152602001600282015481526020016003820180546132d8906146fc565b80601f0160208091040260200160405190810160405280929190818152602001828054613304906146fc565b80156133515780601f1061332657610100808354040283529160200191613351565b820191906000526020600020905b81548152906001019060200180831161333457829003601f168201915b505050505081525050925050509392505050565b61336d61395a565b6001600160a01b0381166133e95760405162461bcd60e51b815260206004820152602660248201527f4f776e61626c653a206e6577206f776e657220697320746865207a65726f206160448201527f64647265737300000000000000000000000000000000000000000000000000006064820152608401610b01565b611ce5816139b4565b3360009081526070602052604090205460ff1661340e57600080fd5b6000818152606f60205260408120906134278282613b26565b613435600183016000613b26565b600282016000905560038201600061344d9190613b26565b505060405181907f426d20a7bc7a9a3fac3c69e48d630ef6655b4b653d3ccce9bddd3648dddf41a090600090a250565b3360009081526070602052604090205460ff1661349957600080fd5b6134a4838383613718565b807f864adecfa3d88ad74c41f0875f37eaa22b5235cb6ed99ff190c44128c48eb602836001604051610f35929190614a9b565b6134df613b93565b60006066600081546134f090614a82565b91829055506000818152606c60205260409020909150806135118982614784565b506001818101889055600282018390556007820187905560068201805461ffff1916905560088201869055600982018590555b8781116135b05780600103613579576000838152606b602090815260408083208484529091529020805460ff1916905561359e565b6000838152606b602090815260408083208484529091529020805460ff191660011790555b806135a881614a82565b915050613544565b5080604051806101600160405290816000820180546135ce906146fc565b80601f01602080910402602001604051908101604052809291908181526020018280546135fa906146fc565b80156136475780601f1061361c57610100808354040283529160200191613647565b820191906000526020600020905b81548152906001019060200180831161362a57829003601f168201915b50505091835250506001820154602082015260028201546040820152600380830154606083015260048301546080830152600583015460a0830152600683015460c09092019160ff16908111156136a0576136a0613e30565b60038111156136b1576136b1613e30565b81526020016006820160019054906101000a900460ff1660018111156136d9576136d9613e30565b60018111156136ea576136ea613e30565b8152600782015460208201526008820154604082015260099091015460609091015298975050505050505050565b6000818152606c60205260409020600201546137685760405162461bcd60e51b815260206004820152600f60248201526e52616365206e6f742065786973747360881b6044820152606401610b01565b60005b835181101561384f576000606f600086848151811061378c5761378c614abf565b6020026020010151815260200190815260200160002060020154116137eb5760405162461bcd60e51b8152602060048201526015602482015274436f6e74657374616e74206e6f742065786973747360581b6044820152606401610b01565b6000828152606a602052604081208551829087908590811061380f5761380f614abf565b6020026020010151815260200190815260200160002060006101000a81548160ff021916908315150217905550808061384790614a82565b91505061376b565b5060005b82518110156110c8576000606f600085848151811061387457613874614abf565b6020026020010151815260200190815260200160002060020154116138d35760405162461bcd60e51b8152602060048201526015602482015274436f6e74657374616e74206e6f742065786973747360581b6044820152606401610b01565b6000828152606a602052604081208451600192908690859081106138f9576138f9614abf565b6020026020010151815260200190815260200160002060006101000a81548160ff021916908315150217905550808061393190614a82565b915050613853565b600080836139478487614ad5565b6139519190614af4565b95945050505050565b6033546001600160a01b031633146119625760405162461bcd60e51b815260206004820181905260248201527f4f776e61626c653a2063616c6c6572206973206e6f7420746865206f776e65726044820152606401610b01565b603380546001600160a01b038381166001600160a01b0319831681179093556040519116919082907f8be0079c531659141344cd1fd0a4f28419497f9722a3daafe3b4186f6b6457e090600090a35050565b600054610100900460ff16613a715760405162461bcd60e51b815260206004820152602b60248201527f496e697469616c697a61626c653a20636f6e7472616374206973206e6f74206960448201526a6e697469616c697a696e6760a81b6064820152608401610b01565b611962600054610100900460ff16613adf5760405162461bcd60e51b815260206004820152602b60248201527f496e697469616c697a61626c653a20636f6e7472616374206973206e6f74206960448201526a6e697469616c697a696e6760a81b6064820152608401610b01565b611962336139b4565b8260038101928215613b16579160200282015b82811115613b16578251825591602001919060010190613afb565b50613b22929150613bfe565b5090565b508054613b32906146fc565b6000825580601f10613b42575050565b601f016020900490600052602060002090810190611ce59190613bfe565b8260038101928215613b16579160200282015b82811115613b16578251829060ff16905591602001919060010190613b73565b60405180610160016040528060608152602001600081526020016000815260200160008152602001600081526020016000815260200160006003811115613bdc57613bdc613e30565b8152602001600081526020016000815260200160008152602001600081525090565b5b80821115613b225760008155600101613bff565b634e487b7160e01b600052604160045260246000fd5b604051601f8201601f1916810167ffffffffffffffff81118282101715613c5257613c52613c13565b604052919050565b600082601f830112613c6b57600080fd5b813567ffffffffffffffff811115613c8557613c85613c13565b613c98601f8201601f1916602001613c29565b818152846020838601011115613cad57600080fd5b816020850160208301376000918101602001919091529392505050565b600082601f830112613cdb57600080fd5b8135602067ffffffffffffffff821115613cf757613cf7613c13565b8160051b613d06828201613c29565b9283528481018201928281019087851115613d2057600080fd5b83870192505b84831015613d3f57823582529183019190830190613d26565b979650505050505050565b60008060008060008060c08789031215613d6357600080fd5b863567ffffffffffffffff80821115613d7b57600080fd5b613d878a838b01613c5a565b97506020890135965060408901359550606089013594506080890135935060a0890135915080821115613db957600080fd5b50613dc689828a01613cca565b9150509295509295509295565b600080600080600060a08688031215613deb57600080fd5b505083359560208501359550604085013594606081013594506080013592509050565b60008060408385031215613e2157600080fd5b50508035926020909101359150565b634e487b7160e01b600052602160045260246000fd5b60028110611ce557611ce5613e30565b613e5f81613e46565b9052565b60208101613e7083613e46565b91905290565b600060208284031215613e8857600080fd5b5035919050565b600080600060608486031215613ea457600080fd5b505081359360208301359350604090920135919050565b600080600080600080600080610100898b031215613ed857600080fd5b88359750602089013567ffffffffffffffff80821115613ef757600080fd5b613f038c838d01613c5a565b985060408b0135975060608b0135965060808b0135955060a08b0135945060c08b0135915080821115613f3557600080fd5b613f418c838d01613cca565b935060e08b0135915080821115613f5757600080fd5b50613f648b828c01613cca565b9150509295985092959890939650565b80356001600160a01b0381168114613f8b57600080fd5b919050565b60008060408385031215613fa357600080fd5b82359150613fb360208401613f74565b90509250929050565b60008060008060808587031215613fd257600080fd5b8435935060208501359250613fe960408601613f74565b9396929550929360600135925050565b60006020828403121561400b57600080fd5b61401482613f74565b9392505050565b8015158114611ce557600080fd5b60008060006060848603121561403e57600080fd5b833592506020840135915060408401356140578161401b565b809150509250925092565b803560ff81168114613f8b57600080fd5b60008060006060848603121561408857600080fd5b61409184614062565b925061409f60208501614062565b91506140ad60408501614062565b90509250925092565b600080604083850312156140c957600080fd5b6140d283613f74565b915060208301356140e28161401b565b809150509250929050565b6000806000806080858703121561410357600080fd5b84359350602085013567ffffffffffffffff8082111561412257600080fd5b61412e88838901613c5a565b9450604087013591508082111561414457600080fd5b61415088838901613c5a565b9350606087013591508082111561416657600080fd5b5061417387828801613c5a565b91505092959194509250565b60038110613e5f57613e5f613e30565b6000610120820190508a82526001600160a01b038a1660208301528860408301528760608301528660808301528560a08301526141cf60c083018661417f565b6141d884613e46565b8360e08301528215156101008301529a9950505050505050505050565b6000815180845260005b8181101561421b576020818501810151868301820152016141ff565b8181111561422d576000602083870101525b50601f01601f19169290920160200192915050565b60048110613e5f57613e5f613e30565b60006101608083526142668184018f6141f5565b9150508b60208301528a60408301528960608301528860808301528760a083015261429460c0830188614242565b61429d86613e46565b8560e08301528461010083015283610120830152826101408301529c9b505050505050505050505050565b600080600080608085870312156142de57600080fd5b843593506142ee60208601613f74565b93969395505050506040820135916060013590565b600080600080600060a0868803121561431b57600080fd5b853567ffffffffffffffff81111561433257600080fd5b61433e88828901613c5a565b9860208801359850604088013597606081013597506080013595509350505050565b60008060008060008060c0878903121561437957600080fd5b86359550602087013567ffffffffffffffff81111561439757600080fd5b6143a389828a01613c5a565b96999698505050506040850135946060810135946080820135945060a09091013592509050565b600080600080600060a086880312156143e257600080fd5b85359450602086013593506040860135925060608601356144028161401b565b949793965091946080013592915050565b60808152600061442660808301876141f5565b828103602084015261443881876141f5565b90508460408401528281036060840152613d3f81856141f5565b60008060006060848603121561446757600080fd5b833567ffffffffffffffff8082111561447f57600080fd5b61448b87838801613c5a565b945060208601359150808211156144a157600080fd5b6144ad87838801613c5a565b935060408601359150808211156144c357600080fd5b506144d086828701613c5a565b9150509250925092565b6020815260008251608060208401526144f660a08401826141f5565b90506020840151601f198085840301604086015261451483836141f5565b92506040860151606086015260608601519150808584030160808601525061395182826141f5565b60008060006060848603121561455157600080fd5b833567ffffffffffffffff8082111561456957600080fd5b61457587838801613cca565b9450602086013591508082111561458b57600080fd5b5061459886828701613cca565b925050604084013590509250925092565b600061016082518185526145bf828601826141f5565b9150506020830151602085015260408301516040850152606083015160608501526080830151608085015260a083015160a085015260c083015161460660c0860182614242565b5060e083015161461960e0860182613e56565b50610100838101519085015261012080840151908501526101409283015192909301919091525090565b600081518084526020808501945080840160005b8381101561467357815187529582019590820190600101614657565b509495945050505050565b60408152600061469160408301856145a9565b82810360208401526139518185614643565b634e487b7160e01b600052601160045260246000fd5b600082198211156146cc576146cc6146a3565b500190565b602081016112448284614242565b6000602082840312156146f157600080fd5b81516140148161401b565b600181811c9082168061471057607f821691505b60208210810361473057634e487b7160e01b600052602260045260246000fd5b50919050565b601f82111561148757600081815260208120601f850160051c8101602086101561475d5750805b601f850160051c820191505b8181101561477c57828155600101614769565b505050505050565b815167ffffffffffffffff81111561479e5761479e613c13565b6147b2816147ac84546146fc565b84614736565b602080601f8311600181146147e757600084156147cf5750858301515b600019600386901b1c1916600185901b17855561477c565b600085815260208120601f198616915b82811015614816578886015182559484019460019091019084016147f7565b50858210156148345787850151600019600388901b60f8161c191681555b5050505050600190811b01905550565b60008154614851816146fc565b80855260206001838116801561486e5760018114614888576148b6565b60ff1985168884015283151560051b8801830195506148b6565b866000528260002060005b858110156148ae5781548a8201860152908301908401614893565b890184019650505b505050505092915050565b602081526080602082015260006148db60a0830184614844565b601f19808483030160408501526148f58260018701614844565b915060028501546060850152808483030160808501525061168f8160038601614844565b60208152600061401460208301846145a9565b60008282101561493e5761493e6146a3565b500390565b600081614952576149526146a3565b506000190190565b8154815260018201546001600160a01b03166020820152600282015460408201526003820154606082015260048201546080820152600582015460a082015260068201546101208201906149b460c0840160ff831661417f565b6149c760e0840160ff8360081c16613e56565b6149dc610100840160ff8360101c1615159052565b5092915050565b602081526000610160806020840152614a00610180840185614844565b600185015460408501526002850154606085015260038501546080850152600485015460a0850152600585015460c08501526006850154614a4760e0860160ff8316614242565b614a5b610100860160ff8360081c16613e56565b50600785015461012085015260088501546101408501526009909401549201919091525090565b600060018201614a9457614a946146a3565b5060010190565b604081526000614aae6040830185614643565b905082151560208301529392505050565b634e487b7160e01b600052603260045260246000fd5b6000816000190483118215151615614aef57614aef6146a3565b500290565b600082614b1157634e487b7160e01b600052601260045260246000fd5b50049056fea2646970667358221220b470f292c36865d4c4a792febd79988f1d8bf85f5e31dcd204901844a75b437764736f6c634300080f0033",
    "linkReferences": {},
    "deployedLinkReferences": {}
}